{
  "_format": "hh-sol-artifact-1",
  "contractName": "ExamplePBT",
  "sourceName": "contracts/ExamplePBT.sol",
  "abi": [
    {
      "inputs": [
        {
          "internalType": "string",
          "name": "baseURI",
          "type": "string"
        },
        {
          "internalType": "address[]",
          "name": "admins",
          "type": "address[]"
        }
      ],
      "stateMutability": "nonpayable",
      "type": "constructor"
    },
    {
      "inputs": [],
      "name": "ArrayLengthMismatch",
      "type": "error"
    },
    {
      "inputs": [],
      "name": "BlockNumberTooOld",
      "type": "error"
    },
    {
      "inputs": [],
      "name": "InvalidBlockNumber",
      "type": "error"
    },
    {
      "inputs": [],
      "name": "InvalidSignature",
      "type": "error"
    },
    {
      "inputs": [],
      "name": "NoMappedTokenForChip",
      "type": "error"
    },
    {
      "inputs": [],
      "name": "NoMintedTokenForChip",
      "type": "error"
    },
    {
      "inputs": [],
      "name": "SeedingChipDataForExistingToken",
      "type": "error"
    },
    {
      "inputs": [],
      "name": "TotalSupplyReached",
      "type": "error"
    },
    {
      "inputs": [],
      "name": "UpdatingChipForUnsetChipMapping",
      "type": "error"
    },
    {
      "anonymous": false,
      "inputs": [
        {
          "indexed": true,
          "internalType": "address",
          "name": "owner",
          "type": "address"
        },
        {
          "indexed": true,
          "internalType": "address",
          "name": "approved",
          "type": "address"
        },
        {
          "indexed": true,
          "internalType": "uint256",
          "name": "tokenId",
          "type": "uint256"
        }
      ],
      "name": "Approval",
      "type": "event"
    },
    {
      "anonymous": false,
      "inputs": [
        {
          "indexed": true,
          "internalType": "address",
          "name": "owner",
          "type": "address"
        },
        {
          "indexed": true,
          "internalType": "address",
          "name": "operator",
          "type": "address"
        },
        {
          "indexed": false,
          "internalType": "bool",
          "name": "approved",
          "type": "bool"
        }
      ],
      "name": "ApprovalForAll",
      "type": "event"
    },
    {
      "anonymous": false,
      "inputs": [
        {
          "indexed": true,
          "internalType": "uint256",
          "name": "tokenId",
          "type": "uint256"
        },
        {
          "indexed": true,
          "internalType": "address",
          "name": "oldChipAddress",
          "type": "address"
        },
        {
          "indexed": true,
          "internalType": "address",
          "name": "newChipAddress",
          "type": "address"
        }
      ],
      "name": "PBTChipRemapping",
      "type": "event"
    },
    {
      "anonymous": false,
      "inputs": [
        {
          "indexed": true,
          "internalType": "uint256",
          "name": "tokenId",
          "type": "uint256"
        },
        {
          "indexed": true,
          "internalType": "address",
          "name": "chipAddress",
          "type": "address"
        }
      ],
      "name": "PBTMint",
      "type": "event"
    },
    {
      "anonymous": false,
      "inputs": [
        {
          "indexed": true,
          "internalType": "bytes32",
          "name": "role",
          "type": "bytes32"
        },
        {
          "indexed": true,
          "internalType": "bytes32",
          "name": "previousAdminRole",
          "type": "bytes32"
        },
        {
          "indexed": true,
          "internalType": "bytes32",
          "name": "newAdminRole",
          "type": "bytes32"
        }
      ],
      "name": "RoleAdminChanged",
      "type": "event"
    },
    {
      "anonymous": false,
      "inputs": [
        {
          "indexed": true,
          "internalType": "bytes32",
          "name": "role",
          "type": "bytes32"
        },
        {
          "indexed": true,
          "internalType": "address",
          "name": "account",
          "type": "address"
        },
        {
          "indexed": true,
          "internalType": "address",
          "name": "sender",
          "type": "address"
        }
      ],
      "name": "RoleGranted",
      "type": "event"
    },
    {
      "anonymous": false,
      "inputs": [
        {
          "indexed": true,
          "internalType": "bytes32",
          "name": "role",
          "type": "bytes32"
        },
        {
          "indexed": true,
          "internalType": "address",
          "name": "account",
          "type": "address"
        },
        {
          "indexed": true,
          "internalType": "address",
          "name": "sender",
          "type": "address"
        }
      ],
      "name": "RoleRevoked",
      "type": "event"
    },
    {
      "anonymous": false,
      "inputs": [
        {
          "indexed": true,
          "internalType": "address",
          "name": "from",
          "type": "address"
        },
        {
          "indexed": true,
          "internalType": "address",
          "name": "to",
          "type": "address"
        },
        {
          "indexed": true,
          "internalType": "uint256",
          "name": "tokenId",
          "type": "uint256"
        }
      ],
      "name": "Transfer",
      "type": "event"
    },
    {
      "inputs": [],
      "name": "ADMIN_ROLE",
      "outputs": [
        {
          "internalType": "bytes32",
          "name": "",
          "type": "bytes32"
        }
      ],
      "stateMutability": "view",
      "type": "function"
    },
    {
      "inputs": [],
      "name": "DEFAULT_ADMIN_ROLE",
      "outputs": [
        {
          "internalType": "bytes32",
          "name": "",
          "type": "bytes32"
        }
      ],
      "stateMutability": "view",
      "type": "function"
    },
    {
      "inputs": [],
      "name": "TOTAL_SUPPLY",
      "outputs": [
        {
          "internalType": "uint256",
          "name": "",
          "type": "uint256"
        }
      ],
      "stateMutability": "view",
      "type": "function"
    },
    {
      "inputs": [
        {
          "internalType": "address",
          "name": "to",
          "type": "address"
        },
        {
          "internalType": "uint256",
          "name": "tokenId",
          "type": "uint256"
        }
      ],
      "name": "approve",
      "outputs": [],
      "stateMutability": "nonpayable",
      "type": "function"
    },
    {
      "inputs": [
        {
          "internalType": "address",
          "name": "owner",
          "type": "address"
        }
      ],
      "name": "balanceOf",
      "outputs": [
        {
          "internalType": "uint256",
          "name": "",
          "type": "uint256"
        }
      ],
      "stateMutability": "view",
      "type": "function"
    },
    {
      "inputs": [
        {
          "internalType": "uint256",
          "name": "tokenId",
          "type": "uint256"
        }
      ],
      "name": "getApproved",
      "outputs": [
        {
          "internalType": "address",
          "name": "",
          "type": "address"
        }
      ],
      "stateMutability": "view",
      "type": "function"
    },
    {
      "inputs": [],
      "name": "getMaxBlockhashValidWindow",
      "outputs": [
        {
          "internalType": "uint256",
          "name": "",
          "type": "uint256"
        }
      ],
      "stateMutability": "pure",
      "type": "function"
    },
    {
      "inputs": [
        {
          "internalType": "bytes32",
          "name": "role",
          "type": "bytes32"
        }
      ],
      "name": "getRoleAdmin",
      "outputs": [
        {
          "internalType": "bytes32",
          "name": "",
          "type": "bytes32"
        }
      ],
      "stateMutability": "view",
      "type": "function"
    },
    {
      "inputs": [
        {
          "internalType": "bytes32",
          "name": "role",
          "type": "bytes32"
        },
        {
          "internalType": "address",
          "name": "account",
          "type": "address"
        }
      ],
      "name": "grantRole",
      "outputs": [],
      "stateMutability": "nonpayable",
      "type": "function"
    },
    {
      "inputs": [
        {
          "internalType": "bytes32",
          "name": "role",
          "type": "bytes32"
        },
        {
          "internalType": "address",
          "name": "account",
          "type": "address"
        }
      ],
      "name": "hasRole",
      "outputs": [
        {
          "internalType": "bool",
          "name": "",
          "type": "bool"
        }
      ],
      "stateMutability": "view",
      "type": "function"
    },
    {
      "inputs": [
        {
          "internalType": "address",
          "name": "owner",
          "type": "address"
        },
        {
          "internalType": "address",
          "name": "operator",
          "type": "address"
        }
      ],
      "name": "isApprovedForAll",
      "outputs": [
        {
          "internalType": "bool",
          "name": "",
          "type": "bool"
        }
      ],
      "stateMutability": "view",
      "type": "function"
    },
    {
      "inputs": [
        {
          "internalType": "uint256",
          "name": "tokenId",
          "type": "uint256"
        },
        {
          "internalType": "bytes",
          "name": "payload",
          "type": "bytes"
        },
        {
          "internalType": "bytes",
          "name": "signature",
          "type": "bytes"
        }
      ],
      "name": "isChipSignatureForToken",
      "outputs": [
        {
          "internalType": "bool",
          "name": "",
          "type": "bool"
        }
      ],
      "stateMutability": "view",
      "type": "function"
    },
    {
      "inputs": [
        {
          "internalType": "bytes",
          "name": "signatureFromChip",
          "type": "bytes"
        },
        {
          "internalType": "uint256",
          "name": "blockNumberUsedInSig",
          "type": "uint256"
        }
      ],
      "name": "mintPBT",
      "outputs": [],
      "stateMutability": "nonpayable",
      "type": "function"
    },
    {
      "inputs": [],
      "name": "name",
      "outputs": [
        {
          "internalType": "string",
          "name": "",
          "type": "string"
        }
      ],
      "stateMutability": "view",
      "type": "function"
    },
    {
      "inputs": [
        {
          "internalType": "uint256",
          "name": "tokenId",
          "type": "uint256"
        }
      ],
      "name": "ownerOf",
      "outputs": [
        {
          "internalType": "address",
          "name": "",
          "type": "address"
        }
      ],
      "stateMutability": "view",
      "type": "function"
    },
    {
      "inputs": [
        {
          "internalType": "bytes32",
          "name": "role",
          "type": "bytes32"
        },
        {
          "internalType": "address",
          "name": "account",
          "type": "address"
        }
      ],
      "name": "renounceRole",
      "outputs": [],
      "stateMutability": "nonpayable",
      "type": "function"
    },
    {
      "inputs": [
        {
          "internalType": "bytes32",
          "name": "role",
          "type": "bytes32"
        },
        {
          "internalType": "address",
          "name": "account",
          "type": "address"
        }
      ],
      "name": "revokeRole",
      "outputs": [],
      "stateMutability": "nonpayable",
      "type": "function"
    },
    {
      "inputs": [
        {
          "internalType": "address",
          "name": "from",
          "type": "address"
        },
        {
          "internalType": "address",
          "name": "to",
          "type": "address"
        },
        {
          "internalType": "uint256",
          "name": "tokenId",
          "type": "uint256"
        }
      ],
      "name": "safeTransferFrom",
      "outputs": [],
      "stateMutability": "nonpayable",
      "type": "function"
    },
    {
      "inputs": [
        {
          "internalType": "address",
          "name": "from",
          "type": "address"
        },
        {
          "internalType": "address",
          "name": "to",
          "type": "address"
        },
        {
          "internalType": "uint256",
          "name": "tokenId",
          "type": "uint256"
        },
        {
          "internalType": "bytes",
          "name": "data",
          "type": "bytes"
        }
      ],
      "name": "safeTransferFrom",
      "outputs": [],
      "stateMutability": "nonpayable",
      "type": "function"
    },
    {
      "inputs": [
        {
          "internalType": "address[]",
          "name": "chipAddresses",
          "type": "address[]"
        },
        {
          "internalType": "uint256[]",
          "name": "tokenIds",
          "type": "uint256[]"
        },
        {
          "internalType": "bool",
          "name": "throwIfTokenAlreadyMinted",
          "type": "bool"
        }
      ],
      "name": "seedChipToTokenMapping",
      "outputs": [],
      "stateMutability": "nonpayable",
      "type": "function"
    },
    {
      "inputs": [
        {
          "internalType": "address",
          "name": "operator",
          "type": "address"
        },
        {
          "internalType": "bool",
          "name": "approved",
          "type": "bool"
        }
      ],
      "name": "setApprovalForAll",
      "outputs": [],
      "stateMutability": "nonpayable",
      "type": "function"
    },
    {
      "inputs": [
        {
          "internalType": "string",
          "name": "baseURI",
          "type": "string"
        }
      ],
      "name": "setBaseURI",
      "outputs": [],
      "stateMutability": "nonpayable",
      "type": "function"
    },
    {
      "inputs": [],
      "name": "supply",
      "outputs": [
        {
          "internalType": "uint256",
          "name": "",
          "type": "uint256"
        }
      ],
      "stateMutability": "view",
      "type": "function"
    },
    {
      "inputs": [
        {
          "internalType": "bytes4",
          "name": "interfaceId",
          "type": "bytes4"
        }
      ],
      "name": "supportsInterface",
      "outputs": [
        {
          "internalType": "bool",
          "name": "",
          "type": "bool"
        }
      ],
      "stateMutability": "view",
      "type": "function"
    },
    {
      "inputs": [],
      "name": "symbol",
      "outputs": [
        {
          "internalType": "string",
          "name": "",
          "type": "string"
        }
      ],
      "stateMutability": "view",
      "type": "function"
    },
    {
      "inputs": [
        {
          "internalType": "address",
          "name": "chipAddress",
          "type": "address"
        }
      ],
      "name": "tokenIdFor",
      "outputs": [
        {
          "internalType": "uint256",
          "name": "",
          "type": "uint256"
        }
      ],
      "stateMutability": "view",
      "type": "function"
    },
    {
      "inputs": [
        {
          "internalType": "address",
          "name": "chipAddress",
          "type": "address"
        }
      ],
      "name": "tokenIdMappedFor",
      "outputs": [
        {
          "internalType": "uint256",
          "name": "",
          "type": "uint256"
        }
      ],
      "stateMutability": "view",
      "type": "function"
    },
    {
      "inputs": [
        {
          "internalType": "uint256",
          "name": "tokenId",
          "type": "uint256"
        }
      ],
      "name": "tokenURI",
      "outputs": [
        {
          "internalType": "string",
          "name": "",
          "type": "string"
        }
      ],
      "stateMutability": "view",
      "type": "function"
    },
    {
      "inputs": [
        {
          "internalType": "address",
          "name": "from",
          "type": "address"
        },
        {
          "internalType": "address",
          "name": "to",
          "type": "address"
        },
        {
          "internalType": "uint256",
          "name": "tokenId",
          "type": "uint256"
        }
      ],
      "name": "transferFrom",
      "outputs": [],
      "stateMutability": "nonpayable",
      "type": "function"
    },
    {
      "inputs": [
        {
          "internalType": "bytes",
          "name": "signatureFromChip",
          "type": "bytes"
        },
        {
          "internalType": "uint256",
          "name": "blockNumberUsedInSig",
          "type": "uint256"
        }
      ],
      "name": "transferTokenWithChip",
      "outputs": [],
      "stateMutability": "nonpayable",
      "type": "function"
    },
    {
      "inputs": [
        {
          "internalType": "bytes",
          "name": "signatureFromChip",
          "type": "bytes"
        },
        {
          "internalType": "uint256",
          "name": "blockNumberUsedInSig",
          "type": "uint256"
        },
        {
          "internalType": "bool",
          "name": "useSafeTransferFrom",
          "type": "bool"
        }
      ],
      "name": "transferTokenWithChip",
      "outputs": [],
      "stateMutability": "nonpayable",
      "type": "function"
    },
    {
      "inputs": [
        {
          "internalType": "address[]",
          "name": "chipAddressesOld",
          "type": "address[]"
        },
        {
          "internalType": "address[]",
          "name": "chipAddressesNew",
          "type": "address[]"
        }
      ],
      "name": "updateChips",
      "outputs": [],
      "stateMutability": "nonpayable",
      "type": "function"
    }
  ],
  "bytecode": "0x60806040523480156200001157600080fd5b5060405162002c4838038062002c488339810160408190526200003491620002dc565b6040518060400160405280600a815260200169115e185b5c1b1954109560b21b8152506040518060400160405280600381526020016214109560ea1b81525081818181816000908162000088919062000447565b50600162000097828262000447565b505050505050508160099081620000af919062000447565b50620000bd60003362000140565b620000d860008051602062002c288339815191523362000140565b60005b815181101562000137576200012260008051602062002c288339815191528383815181106200010e576200010e62000513565b60200260200101516200014060201b60201c565b806200012e8162000529565b915050620000db565b50505062000551565b6200014c828262000150565b5050565b60008281526007602090815260408083206001600160a01b038516845290915290205460ff166200014c5760008281526007602090815260408083206001600160a01b03851684529091529020805460ff19166001179055620001b03390565b6001600160a01b0316816001600160a01b0316837f2f8788117e7eff1d82e926ec794901d17c78024a50270940304540a733656f0d60405160405180910390a45050565b634e487b7160e01b600052604160045260246000fd5b604051601f8201601f191681016001600160401b0381118282101715620002355762000235620001f4565b604052919050565b600082601f8301126200024f57600080fd5b815160206001600160401b038211156200026d576200026d620001f4565b8160051b6200027e8282016200020a565b92835284810182019282810190878511156200029957600080fd5b83870192505b84831015620002d15782516001600160a01b0381168114620002c15760008081fd5b825291830191908301906200029f565b979650505050505050565b60008060408385031215620002f057600080fd5b82516001600160401b03808211156200030857600080fd5b818501915085601f8301126200031d57600080fd5b815181811115620003325762000332620001f4565b602062000348601f8301601f191682016200020a565b82815288828487010111156200035d57600080fd5b60005b838110156200037d57858101830151828201840152820162000360565b5060009281018201929092528601519094509150808211156200039f57600080fd5b50620003ae858286016200023d565b9150509250929050565b600181811c90821680620003cd57607f821691505b602082108103620003ee57634e487b7160e01b600052602260045260246000fd5b50919050565b601f8211156200044257600081815260208120601f850160051c810160208610156200041d5750805b601f850160051c820191505b818110156200043e5782815560010162000429565b5050505b505050565b81516001600160401b03811115620004635762000463620001f4565b6200047b81620004748454620003b8565b84620003f4565b602080601f831160018114620004b357600084156200049a5750858301515b600019600386901b1c1916600185901b1785556200043e565b600085815260208120601f198616915b82811015620004e457888601518255948401946001909101908401620004c3565b5085821015620005035787850151600019600388901b60f8161c191681555b5050505050600190811b01905550565b634e487b7160e01b600052603260045260246000fd5b6000600182016200054a57634e487b7160e01b600052601160045260246000fd5b5060010190565b6126c780620005616000396000f3fe608060405234801561001057600080fd5b50600436106101f05760003560e01c806375b238fc1161010f578063c7e460ba116100a2578063d547741f11610071578063d547741f1461041e578063d67d13ad14610431578063dcf960ee14610444578063e985e9c51461045757600080fd5b8063c7e460ba146103d2578063c87b56dd146103e5578063d30d520c146103f8578063d427e7541461040b57600080fd5b8063a217fddf116100de578063a217fddf146103a2578063a22cb465146103aa578063b88d4fde146103bd578063ba70316f146103cb57600080fd5b806375b238fc1461036a578063902d55a51461037f57806391d148541461038757806395d89b411461039a57600080fd5b80632f2ff15d1161018757806355f804b31161015657806355f804b31461031e5780636352211e146103315780636b953dd81461034457806370a082311461035757600080fd5b80632f2ff15d146102d257806336568abe146102e557806342842e0e146102f85780634b5f42ea1461030b57600080fd5b806308daee36116101c357806308daee3614610274578063095ea7b31461028757806323b872dd1461029c578063248a9ca3146102af57600080fd5b806301ffc9a7146101f5578063047fc9aa1461021d57806306fdde0314610234578063081812fc14610249575b600080fd5b610208610203366004611d24565b61046d565b60405190151581526020015b60405180910390f35b61022660085481565b604051908152602001610214565b61023c61047e565b6040516102149190611d91565b61025c610257366004611da4565b610510565b6040516001600160a01b039091168152602001610214565b610226610282366004611dd9565b610548565b61029a610295366004611df4565b61057c565b005b61029a6102aa366004611e1e565b6105ce565b6102266102bd366004611da4565b60009081526007602052604090206001015490565b61029a6102e0366004611e5a565b610625565b61029a6102f3366004611e5a565b61064f565b61029a610306366004611e1e565b6106cd565b610208610319366004611f28565b610728565b61029a61032c366004611fd5565b6107c8565b61025c61033f366004611da4565b6107f3565b610226610352366004611dd9565b610828565b610226610365366004611dd9565b610887565b61022660008051602061267283398151915281565b610226600481565b610208610395366004611e5a565b61090d565b61023c610938565b610226600081565b61029a6103b8366004612026565b610947565b61029a610306366004612050565b6064610226565b61029a6103e03660046120fb565b6109a3565b61023c6103f3366004611da4565b610a32565b61029a61040636600461217b565b610a98565b61029a6104193660046121e6565b610ac3565b61029a61042c366004611e5a565b610b00565b61029a61043f3660046121e6565b610b25565b61029a610452366004612231565b610b2e565b61020861046536600461228d565b600092915050565b600061047882610b3a565b92915050565b60606000805461048d906122b7565b80601f01602080910402602001604051908101604052809291908181526020018280546104b9906122b7565b80156105065780601f106104db57610100808354040283529160200191610506565b820191906000526020600020905b8154815290600101906020018083116104e957829003601f168201915b5050505050905090565b600061051b82610b5f565b6105405760405162461bcd60e51b8152600401610537906122f1565b60405180910390fd5b506000919050565b60008061055483610828565b905061055f81610b5f565b61047857604051631d240ff960e21b815260040160405180910390fd5b60405162461bcd60e51b815260206004820152602160248201527f455243373231207075626c696320617070726f7665206e6f7420616c6c6f77656044820152601960fa1b6064820152608401610537565b60405162461bcd60e51b815260206004820152602660248201527f455243373231207075626c6963207472616e7366657246726f6d206e6f7420616044820152651b1b1bddd95960d21b6064820152608401610537565b60008281526007602052604090206001015461064081610b7c565b61064a8383610b89565b505050565b6001600160a01b03811633146106bf5760405162461bcd60e51b815260206004820152602f60248201527f416363657373436f6e74726f6c3a2063616e206f6e6c792072656e6f756e636560448201526e103937b632b9903337b91039b2b63360891b6064820152608401610537565b6106c98282610c0f565b5050565b60405162461bcd60e51b815260206004820152602a60248201527f455243373231207075626c696320736166655472616e7366657246726f6d206e6044820152691bdd08185b1b1bddd95960b21b6064820152608401610537565b600061073384610b5f565b61075057604051631d240ff960e21b815260040160405180910390fd5b60006107628480519060200120610c76565b905060006107708285610cc9565b6001600160a01b038116600090815260066020526040902060010154909150600160a01b900460ff1680156107bc57506001600160a01b03811660009081526006602052604090205486145b925050505b9392505050565b6000805160206126728339815191526107e081610b7c565b60096107ed83858361236e565b50505050565b6000818152600260205260408120546001600160a01b0316806104785760405162461bcd60e51b8152600401610537906122f1565b6001600160a01b038116600090815260066020526040812060010154600160a01b900460ff1661086b57604051630239974760e01b815260040160405180910390fd5b506001600160a01b031660009081526006602052604090205490565b60006001600160a01b0382166108f15760405162461bcd60e51b815260206004820152602960248201527f4552433732313a2061646472657373207a65726f206973206e6f7420612076616044820152683634b21037bbb732b960b91b6064820152608401610537565b506001600160a01b031660009081526003602052604090205490565b60009182526007602090815260408084206001600160a01b0393909316845291905290205460ff1690565b60606001805461048d906122b7565b60405162461bcd60e51b815260206004820152602b60248201527f455243373231207075626c696320736574417070726f76616c466f72416c6c2060448201526a1b9bdd08185b1b1bddd95960aa1b6064820152608401610537565b6000805160206126728339815191526109bb81610b7c565b610a2a86868080602002602001604051908101604052809392919081815260200183836020028082843760009201919091525050604080516020808a02828101820190935289825290935089925088918291850190849080828437600092019190915250879250610ced915050565b505050505050565b6060610a3d82610df9565b6000610a47610e1e565b90506000815111610a6757604051806020016040528060008152506107c1565b80610a7184610e2d565b604051602001610a8292919061242d565b6040516020818303038152906040529392505050565b600080516020612672833981519152610ab081610b7c565b610abc85858585610ebf565b5050505050565b600460085403610ae657604051637be9badb60e01b815260040160405180910390fd5b610af18383836110a2565b50506008805460010190555050565b600082815260076020526040902060010154610b1b81610b7c565b61064a8383610c0f565b61064a83838360005b6107ed84848484611103565b60006001600160e01b03198216637965db0b60e01b1480610478575061047882611154565b6000908152600260205260409020546001600160a01b0316151590565b610b868133611179565b50565b610b93828261090d565b6106c95760008281526007602090815260408083206001600160a01b03851684529091529020805460ff19166001179055610bcb3390565b6001600160a01b0316816001600160a01b0316837f2f8788117e7eff1d82e926ec794901d17c78024a50270940304540a733656f0d60405160405180910390a45050565b610c19828261090d565b156106c95760008281526007602090815260408083206001600160a01b0385168085529252808320805460ff1916905551339285917ff6391f5c32d9c69d2a47ea670b442974b53935d1edc7fd64eb21e047a839171b9190a45050565b6040517f19457468657265756d205369676e6564204d6573736167653a0a3332000000006020820152603c8101829052600090605c01604051602081830303815290604052805190602001209050919050565b6000806000610cd885856111d2565b91509150610ce581611217565b509392505050565b815183518114610d105760405163512509d360e11b815260040160405180910390fd5b60005b81811015610abc576000858281518110610d2f57610d2f61245c565b602002602001015190506000858381518110610d4d57610d4d61245c565b60200260200101519050848015610d685750610d6881610b5f565b15610d8657604051633fc613e760e01b815260040160405180910390fd5b604080516060810182529182526001600160a01b0392831660208084018281526001858501818152600094855260069093529390922093518455905192909101805491511515600160a01b026001600160a81b03199092169290931691909117179055610df281612488565b9050610d13565b610e0281610b5f565b610b865760405162461bcd60e51b8152600401610537906122f1565b60606009805461048d906122b7565b60606000610e3a83611361565b60010190506000816001600160401b03811115610e5957610e59611e86565b6040519080825280601f01601f191660200182016040528015610e83576020820181803683370190505b5090508181016020015b600019016f181899199a1a9b1b9c1cb0b131b232b360811b600a86061a8153600a8504945084610e8d57509392505050565b828114610edf5760405163512509d360e11b815260040160405180910390fd5b60005b83811015610abc576000858583818110610efe57610efe61245c565b9050602002016020810190610f139190611dd9565b6001600160a01b0381811660009081526006602090815260409182902082516060810184528154815260019091015493841691810191909152600160a01b90920460ff16151590820181905291925090610f805760405163794ea60960e01b815260040160405180910390fd5b6000858585818110610f9457610f9461245c565b9050602002016020810190610fa99190611dd9565b8251604080516060810182528281526001600160a01b0380851660208084018281526001858701818152600094855260069093529590922093518455905192909301805493511515600160a01b026001600160a81b0319909416929091169190911791909117905590915061101d81610b5f565b1561106457816001600160a01b0316846001600160a01b0316827fcd66beec785ca42d0623b531cba30cb24eacae50d76d9301b6945341cbd5856560405160405180910390a45b5050506001600160a01b0316600090815260066020526040812090815560010180546001600160a81b031916905561109b81612488565b9050610ee2565b6000806110b0858585611439565b80519091506110bf33826115a4565b81602001516001600160a01b0316817f1e98ed4919fa421d4b871082794f2c63228dd0b5efb584e1a6131de3a7d26cb260405160405180910390a395945050505050565b6000611110858585611439565b51905081156111415761113c611125826107f3565b33836040518060200160405280600081525061171f565b610abc565b610abc61114d826107f3565b3383611752565b60006001600160e01b03198216634901df9f60e01b14806104785750610478826118c3565b611183828261090d565b6106c95761119081611913565b61119b836020611925565b6040516020016111ac9291906124a1565b60408051601f198184030181529082905262461bcd60e51b825261053791600401611d91565b60008082516041036112085760208301516040840151606085015160001a6111fc87828585611ac0565b94509450505050611210565b506000905060025b9250929050565b600081600481111561122b5761122b612516565b036112335750565b600181600481111561124757611247612516565b036112945760405162461bcd60e51b815260206004820152601860248201527f45434453413a20696e76616c6964207369676e617475726500000000000000006044820152606401610537565b60028160048111156112a8576112a8612516565b036112f55760405162461bcd60e51b815260206004820152601f60248201527f45434453413a20696e76616c6964207369676e6174757265206c656e677468006044820152606401610537565b600381600481111561130957611309612516565b03610b865760405162461bcd60e51b815260206004820152602260248201527f45434453413a20696e76616c6964207369676e6174757265202773272076616c604482015261756560f01b6064820152608401610537565b60008072184f03e93ff9f4daa797ed6e38ed64bf6a1f0160401b83106113a05772184f03e93ff9f4daa797ed6e38ed64bf6a1f0160401b830492506040015b6d04ee2d6d415b85acef810000000083106113cc576d04ee2d6d415b85acef8100000000830492506020015b662386f26fc1000083106113ea57662386f26fc10000830492506010015b6305f5e1008310611402576305f5e100830492506008015b612710831061141657612710830492506004015b60648310611428576064830492506002015b600a83106104785760010192915050565b604080516060810182526000808252602082018190529181019190915281431161147657604051631391e11b60e21b815260040160405180910390fd5b6064824303111561149a576040516351cc51c760e11b815260040160405180910390fd5b6040516bffffffffffffffffffffffff193360601b166020820152824060348201819052906000906114e49060540160405160208183030381529060405280519060200120610c76565b9050600061152a87878080601f0160208091040260200160405190810160405280939291908181526020018383808284376000920191909152508693925050610cc99050565b6001600160a01b0381811660009081526006602090815260409182902082516060810184528154815260019091015493841691810191909152600160a01b90920460ff16158015918301919091529192509061158b5793506107c192505050565b604051638baa579f60e01b815260040160405180910390fd5b6001600160a01b0382166115fa5760405162461bcd60e51b815260206004820181905260248201527f4552433732313a206d696e7420746f20746865207a65726f20616464726573736044820152606401610537565b61160381610b5f565b156116505760405162461bcd60e51b815260206004820152601c60248201527f4552433732313a20746f6b656e20616c7265616479206d696e746564000000006044820152606401610537565b61165e600083836001611b84565b61166781610b5f565b156116b45760405162461bcd60e51b815260206004820152601c60248201527f4552433732313a20746f6b656e20616c7265616479206d696e746564000000006044820152606401610537565b6001600160a01b038216600081815260036020908152604080832080546001019055848352600290915280822080546001600160a01b0319168417905551839291907fddf252ad1be2c89b69c2b068fc378daa952ba7f163c4a11628f55a4df523b3ef908290a45050565b61172a848484611752565b61173684848484611c0c565b6107ed5760405162461bcd60e51b81526004016105379061252c565b826001600160a01b0316611765826107f3565b6001600160a01b03161461178b5760405162461bcd60e51b81526004016105379061257e565b6001600160a01b0382166117ed5760405162461bcd60e51b8152602060048201526024808201527f4552433732313a207472616e7366657220746f20746865207a65726f206164646044820152637265737360e01b6064820152608401610537565b6117fa8383836001611b84565b826001600160a01b031661180d826107f3565b6001600160a01b0316146118335760405162461bcd60e51b81526004016105379061257e565b600081815260046020908152604080832080546001600160a01b03199081169091556001600160a01b0387811680865260038552838620805460001901905590871680865283862080546001019055868652600290945282852080549092168417909155905184937fddf252ad1be2c89b69c2b068fc378daa952ba7f163c4a11628f55a4df523b3ef91a4505050565b60006001600160e01b031982166380ac58cd60e01b14806118f457506001600160e01b03198216635b5e139f60e01b145b8061047857506301ffc9a760e01b6001600160e01b0319831614610478565b60606104786001600160a01b03831660145b606060006119348360026125c3565b61193f9060026125da565b6001600160401b0381111561195657611956611e86565b6040519080825280601f01601f191660200182016040528015611980576020820181803683370190505b509050600360fc1b8160008151811061199b5761199b61245c565b60200101906001600160f81b031916908160001a905350600f60fb1b816001815181106119ca576119ca61245c565b60200101906001600160f81b031916908160001a90535060006119ee8460026125c3565b6119f99060016125da565b90505b6001811115611a71576f181899199a1a9b1b9c1cb0b131b232b360811b85600f1660108110611a2d57611a2d61245c565b1a60f81b828281518110611a4357611a4361245c565b60200101906001600160f81b031916908160001a90535060049490941c93611a6a816125ed565b90506119fc565b5083156107c15760405162461bcd60e51b815260206004820181905260248201527f537472696e67733a20686578206c656e67746820696e73756666696369656e746044820152606401610537565b6000807f7fffffffffffffffffffffffffffffff5d576e7357a4501ddfe92f46681b20a0831115611af75750600090506003611b7b565b6040805160008082526020820180845289905260ff881692820192909252606081018690526080810185905260019060a0016020604051602081039080840390855afa158015611b4b573d6000803e3d6000fd5b5050604051601f1901519150506001600160a01b038116611b7457600060019250925050611b7b565b9150600090505b94509492505050565b60018111156107ed576001600160a01b03841615611bca576001600160a01b03841660009081526003602052604081208054839290611bc4908490612604565b90915550505b6001600160a01b038316156107ed576001600160a01b03831660009081526003602052604081208054839290611c019084906125da565b909155505050505050565b60006001600160a01b0384163b15611d0257604051630a85bd0160e11b81526001600160a01b0385169063150b7a0290611c50903390899088908890600401612617565b6020604051808303816000875af1925050508015611c8b575060408051601f3d908101601f19168201909252611c8891810190612654565b60015b611ce8573d808015611cb9576040519150601f19603f3d011682016040523d82523d6000602084013e611cbe565b606091505b508051600003611ce05760405162461bcd60e51b81526004016105379061252c565b805181602001fd5b6001600160e01b031916630a85bd0160e11b149050611d06565b5060015b949350505050565b6001600160e01b031981168114610b8657600080fd5b600060208284031215611d3657600080fd5b81356107c181611d0e565b60005b83811015611d5c578181015183820152602001611d44565b50506000910152565b60008151808452611d7d816020860160208601611d41565b601f01601f19169290920160200192915050565b6020815260006107c16020830184611d65565b600060208284031215611db657600080fd5b5035919050565b80356001600160a01b0381168114611dd457600080fd5b919050565b600060208284031215611deb57600080fd5b6107c182611dbd565b60008060408385031215611e0757600080fd5b611e1083611dbd565b946020939093013593505050565b600080600060608486031215611e3357600080fd5b611e3c84611dbd565b9250611e4a60208501611dbd565b9150604084013590509250925092565b60008060408385031215611e6d57600080fd5b82359150611e7d60208401611dbd565b90509250929050565b634e487b7160e01b600052604160045260246000fd5b600082601f830112611ead57600080fd5b81356001600160401b0380821115611ec757611ec7611e86565b604051601f8301601f19908116603f01168101908282118183101715611eef57611eef611e86565b81604052838152866020858801011115611f0857600080fd5b836020870160208301376000602085830101528094505050505092915050565b600080600060608486031215611f3d57600080fd5b8335925060208401356001600160401b0380821115611f5b57600080fd5b611f6787838801611e9c565b93506040860135915080821115611f7d57600080fd5b50611f8a86828701611e9c565b9150509250925092565b60008083601f840112611fa657600080fd5b5081356001600160401b03811115611fbd57600080fd5b60208301915083602082850101111561121057600080fd5b60008060208385031215611fe857600080fd5b82356001600160401b03811115611ffe57600080fd5b61200a85828601611f94565b90969095509350505050565b80358015158114611dd457600080fd5b6000806040838503121561203957600080fd5b61204283611dbd565b9150611e7d60208401612016565b6000806000806080858703121561206657600080fd5b61206f85611dbd565b935061207d60208601611dbd565b92506040850135915060608501356001600160401b0381111561209f57600080fd5b6120ab87828801611e9c565b91505092959194509250565b60008083601f8401126120c957600080fd5b5081356001600160401b038111156120e057600080fd5b6020830191508360208260051b850101111561121057600080fd5b60008060008060006060868803121561211357600080fd5b85356001600160401b038082111561212a57600080fd5b61213689838a016120b7565b9097509550602088013591508082111561214f57600080fd5b5061215c888289016120b7565b909450925061216f905060408701612016565b90509295509295909350565b6000806000806040858703121561219157600080fd5b84356001600160401b03808211156121a857600080fd5b6121b4888389016120b7565b909650945060208701359150808211156121cd57600080fd5b506121da878288016120b7565b95989497509550505050565b6000806000604084860312156121fb57600080fd5b83356001600160401b0381111561221157600080fd5b61221d86828701611f94565b909790965060209590950135949350505050565b6000806000806060858703121561224757600080fd5b84356001600160401b0381111561225d57600080fd5b61226987828801611f94565b9095509350506020850135915061228260408601612016565b905092959194509250565b600080604083850312156122a057600080fd5b6122a983611dbd565b9150611e7d60208401611dbd565b600181811c908216806122cb57607f821691505b6020821081036122eb57634e487b7160e01b600052602260045260246000fd5b50919050565b60208082526018908201527f4552433732313a20696e76616c696420746f6b656e2049440000000000000000604082015260600190565b601f82111561064a57600081815260208120601f850160051c8101602086101561234f5750805b601f850160051c820191505b81811015610a2a5782815560010161235b565b6001600160401b0383111561238557612385611e86565b6123998361239383546122b7565b83612328565b6000601f8411600181146123cd57600085156123b55750838201355b600019600387901b1c1916600186901b178355610abc565b600083815260209020601f19861690835b828110156123fe57868501358255602094850194600190920191016123de565b508682101561241b5760001960f88860031b161c19848701351681555b505060018560011b0183555050505050565b6000835161243f818460208801611d41565b835190830190612453818360208801611d41565b01949350505050565b634e487b7160e01b600052603260045260246000fd5b634e487b7160e01b600052601160045260246000fd5b60006001820161249a5761249a612472565b5060010190565b7f416363657373436f6e74726f6c3a206163636f756e74200000000000000000008152600083516124d9816017850160208801611d41565b7001034b99036b4b9b9b4b733903937b6329607d1b601791840191820152835161250a816028840160208801611d41565b01602801949350505050565b634e487b7160e01b600052602160045260246000fd5b60208082526032908201527f4552433732313a207472616e7366657220746f206e6f6e20455243373231526560408201527131b2b4bb32b91034b6b83632b6b2b73a32b960711b606082015260800190565b60208082526025908201527f4552433732313a207472616e736665722066726f6d20696e636f72726563742060408201526437bbb732b960d91b606082015260800190565b808202811582820484141761047857610478612472565b8082018082111561047857610478612472565b6000816125fc576125fc612472565b506000190190565b8181038181111561047857610478612472565b6001600160a01b038581168252841660208201526040810183905260806060820181905260009061264a90830184611d65565b9695505050505050565b60006020828403121561266657600080fd5b81516107c181611d0e56fea49807205ce4d355092ef5a8a18f56e8913cf4a201fbe287825b095693c21775a26469706673582212206ec569b6679d2099134ab69f86a899c0e4ce730d69092424a2a4c840caa5b57c64736f6c63430008110033a49807205ce4d355092ef5a8a18f56e8913cf4a201fbe287825b095693c21775",
  "linkReferences": {},
  "deployedLinkReferences": {}
}