{
  "_format": "hh-sol-artifact-1",
  "contractName": "Reward",
  "sourceName": "contracts/Reward.sol",
  "abi": [
    {
      "inputs": [
        {
          "internalType": "string",
          "name": "_baseTokenURI",
          "type": "string"
        },
        {
          "internalType": "uint256",
          "name": "_maxTokens",
          "type": "uint256"
        }
      ],
      "stateMutability": "nonpayable",
      "type": "constructor"
    },
    {
      "anonymous": false,
      "inputs": [
        {
          "indexed": true,
          "internalType": "address",
          "name": "owner",
          "type": "address"
        },
        {
          "indexed": true,
          "internalType": "address",
          "name": "approved",
          "type": "address"
        },
        {
          "indexed": true,
          "internalType": "uint256",
          "name": "tokenId",
          "type": "uint256"
        }
      ],
      "name": "Approval",
      "type": "event"
    },
    {
      "anonymous": false,
      "inputs": [
        {
          "indexed": true,
          "internalType": "address",
          "name": "owner",
          "type": "address"
        },
        {
          "indexed": true,
          "internalType": "address",
          "name": "operator",
          "type": "address"
        },
        {
          "indexed": false,
          "internalType": "bool",
          "name": "approved",
          "type": "bool"
        }
      ],
      "name": "ApprovalForAll",
      "type": "event"
    },
    {
      "anonymous": false,
      "inputs": [
        {
          "indexed": true,
          "internalType": "address",
          "name": "previousOwner",
          "type": "address"
        },
        {
          "indexed": true,
          "internalType": "address",
          "name": "newOwner",
          "type": "address"
        }
      ],
      "name": "OwnershipTransferred",
      "type": "event"
    },
    {
      "anonymous": false,
      "inputs": [
        {
          "indexed": true,
          "internalType": "address",
          "name": "from",
          "type": "address"
        },
        {
          "indexed": true,
          "internalType": "address",
          "name": "to",
          "type": "address"
        },
        {
          "indexed": true,
          "internalType": "uint256",
          "name": "tokenId",
          "type": "uint256"
        }
      ],
      "name": "Transfer",
      "type": "event"
    },
    {
      "inputs": [
        {
          "internalType": "address",
          "name": "to",
          "type": "address"
        },
        {
          "internalType": "uint256",
          "name": "tokenId",
          "type": "uint256"
        }
      ],
      "name": "approve",
      "outputs": [],
      "stateMutability": "nonpayable",
      "type": "function"
    },
    {
      "inputs": [
        {
          "internalType": "address",
          "name": "owner",
          "type": "address"
        }
      ],
      "name": "balanceOf",
      "outputs": [
        {
          "internalType": "uint256",
          "name": "",
          "type": "uint256"
        }
      ],
      "stateMutability": "view",
      "type": "function"
    },
    {
      "inputs": [
        {
          "internalType": "address",
          "name": "_to",
          "type": "address"
        }
      ],
      "name": "claim",
      "outputs": [],
      "stateMutability": "nonpayable",
      "type": "function"
    },
    {
      "inputs": [
        {
          "internalType": "uint256",
          "name": "tokenId",
          "type": "uint256"
        }
      ],
      "name": "getApproved",
      "outputs": [
        {
          "internalType": "address",
          "name": "",
          "type": "address"
        }
      ],
      "stateMutability": "view",
      "type": "function"
    },
    {
      "inputs": [
        {
          "internalType": "address",
          "name": "owner",
          "type": "address"
        },
        {
          "internalType": "address",
          "name": "operator",
          "type": "address"
        }
      ],
      "name": "isApprovedForAll",
      "outputs": [
        {
          "internalType": "bool",
          "name": "",
          "type": "bool"
        }
      ],
      "stateMutability": "view",
      "type": "function"
    },
    {
      "inputs": [
        {
          "internalType": "address",
          "name": "_to",
          "type": "address"
        }
      ],
      "name": "mint",
      "outputs": [],
      "stateMutability": "nonpayable",
      "type": "function"
    },
    {
      "inputs": [],
      "name": "name",
      "outputs": [
        {
          "internalType": "string",
          "name": "",
          "type": "string"
        }
      ],
      "stateMutability": "view",
      "type": "function"
    },
    {
      "inputs": [],
      "name": "owner",
      "outputs": [
        {
          "internalType": "address",
          "name": "",
          "type": "address"
        }
      ],
      "stateMutability": "view",
      "type": "function"
    },
    {
      "inputs": [
        {
          "internalType": "uint256",
          "name": "tokenId",
          "type": "uint256"
        }
      ],
      "name": "ownerOf",
      "outputs": [
        {
          "internalType": "address",
          "name": "",
          "type": "address"
        }
      ],
      "stateMutability": "view",
      "type": "function"
    },
    {
      "inputs": [],
      "name": "renounceOwnership",
      "outputs": [],
      "stateMutability": "nonpayable",
      "type": "function"
    },
    {
      "inputs": [
        {
          "internalType": "address",
          "name": "from",
          "type": "address"
        },
        {
          "internalType": "address",
          "name": "to",
          "type": "address"
        },
        {
          "internalType": "uint256",
          "name": "tokenId",
          "type": "uint256"
        }
      ],
      "name": "safeTransferFrom",
      "outputs": [],
      "stateMutability": "nonpayable",
      "type": "function"
    },
    {
      "inputs": [
        {
          "internalType": "address",
          "name": "from",
          "type": "address"
        },
        {
          "internalType": "address",
          "name": "to",
          "type": "address"
        },
        {
          "internalType": "uint256",
          "name": "tokenId",
          "type": "uint256"
        },
        {
          "internalType": "bytes",
          "name": "data",
          "type": "bytes"
        }
      ],
      "name": "safeTransferFrom",
      "outputs": [],
      "stateMutability": "nonpayable",
      "type": "function"
    },
    {
      "inputs": [
        {
          "internalType": "address",
          "name": "operator",
          "type": "address"
        },
        {
          "internalType": "bool",
          "name": "approved",
          "type": "bool"
        }
      ],
      "name": "setApprovalForAll",
      "outputs": [],
      "stateMutability": "nonpayable",
      "type": "function"
    },
    {
      "inputs": [
        {
          "internalType": "string",
          "name": "_newBaseTokenURI",
          "type": "string"
        }
      ],
      "name": "setBaseTokenURI",
      "outputs": [],
      "stateMutability": "nonpayable",
      "type": "function"
    },
    {
      "inputs": [
        {
          "internalType": "bytes4",
          "name": "interfaceId",
          "type": "bytes4"
        }
      ],
      "name": "supportsInterface",
      "outputs": [
        {
          "internalType": "bool",
          "name": "",
          "type": "bool"
        }
      ],
      "stateMutability": "view",
      "type": "function"
    },
    {
      "inputs": [],
      "name": "symbol",
      "outputs": [
        {
          "internalType": "string",
          "name": "",
          "type": "string"
        }
      ],
      "stateMutability": "view",
      "type": "function"
    },
    {
      "inputs": [
        {
          "internalType": "uint256",
          "name": "tokenId",
          "type": "uint256"
        }
      ],
      "name": "tokenURI",
      "outputs": [
        {
          "internalType": "string",
          "name": "",
          "type": "string"
        }
      ],
      "stateMutability": "view",
      "type": "function"
    },
    {
      "inputs": [
        {
          "internalType": "address",
          "name": "from",
          "type": "address"
        },
        {
          "internalType": "address",
          "name": "to",
          "type": "address"
        },
        {
          "internalType": "uint256",
          "name": "tokenId",
          "type": "uint256"
        }
      ],
      "name": "transferFrom",
      "outputs": [],
      "stateMutability": "nonpayable",
      "type": "function"
    },
    {
      "inputs": [
        {
          "internalType": "address",
          "name": "newOwner",
          "type": "address"
        }
      ],
      "name": "transferOwnership",
      "outputs": [],
      "stateMutability": "nonpayable",
      "type": "function"
    }
  ],
  "bytecode": "0x60806040523480156200001157600080fd5b5060405162001ce638038062001ce6833981016040819052620000349162000132565b6040518060400160405280600681526020016514995dd85c9960d21b815250604051806040016040528060048152602001631495d49160e21b81525081600090816200008191906200029c565b5060016200009082826200029c565b505050620000ad620000a7620000c660201b60201c565b620000ca565b6009620000bb83826200029c565b50600a555062000368565b3390565b600780546001600160a01b038381166001600160a01b0319831681179093556040519116919082907f8be0079c531659141344cd1fd0a4f28419497f9722a3daafe3b4186f6b6457e090600090a35050565b634e487b7160e01b600052604160045260246000fd5b600080604083850312156200014657600080fd5b82516001600160401b03808211156200015e57600080fd5b818501915085601f8301126200017357600080fd5b8151818111156200018857620001886200011c565b604051601f8201601f19908116603f01168101908382118183101715620001b357620001b36200011c565b81604052828152602093508884848701011115620001d057600080fd5b600091505b82821015620001f45784820184015181830185015290830190620001d5565b6000928101840192909252509401519395939450505050565b600181811c908216806200022257607f821691505b6020821081036200024357634e487b7160e01b600052602260045260246000fd5b50919050565b601f8211156200029757600081815260208120601f850160051c81016020861015620002725750805b601f850160051c820191505b8181101562000293578281556001016200027e565b5050505b505050565b81516001600160401b03811115620002b857620002b86200011c565b620002d081620002c984546200020d565b8462000249565b602080601f831160018114620003085760008415620002ef5750858301515b600019600386901b1c1916600185901b17855562000293565b600085815260208120601f198616915b82811015620003395788860151825594840194600190910190840162000318565b5085821015620003585787850151600019600388901b60f8161c191681555b5050505050600190811b01905550565b61196e80620003786000396000f3fe608060405234801561001057600080fd5b50600436106101215760003560e01c80636a627842116100ad578063a22cb46511610071578063a22cb46514610257578063b88d4fde1461026a578063c87b56dd1461027d578063e985e9c514610290578063f2fde38b146102a357600080fd5b80636a6278421461020257806370a0823114610215578063715018a6146102365780638da5cb5b1461023e57806395d89b411461024f57600080fd5b80631e83409a116100f45780631e83409a146101a357806323b872dd146101b657806330176e13146101c957806342842e0e146101dc5780636352211e146101ef57600080fd5b806301ffc9a71461012657806306fdde031461014e578063081812fc14610163578063095ea7b31461018e575b600080fd5b6101396101343660046112d3565b6102b6565b60405190151581526020015b60405180910390f35b610156610308565b6040516101459190611340565b610176610171366004611353565b61039a565b6040516001600160a01b039091168152602001610145565b6101a161019c366004611388565b6103c1565b005b6101a16101b13660046113b2565b6104db565b6101a16101c43660046113cd565b610580565b6101a16101d7366004611495565b6105b1565b6101a16101ea3660046113cd565b6105c5565b6101766101fd366004611353565b6105e0565b6101a16102103660046113b2565b610640565b6102286102233660046113b2565b610648565b604051908152602001610145565b6101a16106ce565b6007546001600160a01b0316610176565b6101566106e2565b6101a16102653660046114de565b6106f1565b6101a161027836600461151a565b6106fc565b61015661028b366004611353565b610734565b61013961029e366004611596565b610837565b6101a16102b13660046113b2565b610865565b60006001600160e01b031982166380ac58cd60e01b14806102e757506001600160e01b03198216635b5e139f60e01b145b8061030257506301ffc9a760e01b6001600160e01b03198316145b92915050565b606060008054610317906115c9565b80601f0160208091040260200160405190810160405280929190818152602001828054610343906115c9565b80156103905780601f1061036557610100808354040283529160200191610390565b820191906000526020600020905b81548152906001019060200180831161037357829003601f168201915b5050505050905090565b60006103a5826108de565b506000908152600460205260409020546001600160a01b031690565b60006103cc826105e0565b9050806001600160a01b0316836001600160a01b03160361043e5760405162461bcd60e51b815260206004820152602160248201527f4552433732313a20617070726f76616c20746f2063757272656e74206f776e656044820152603960f91b60648201526084015b60405180910390fd5b336001600160a01b038216148061045a575061045a8133610837565b6104cc5760405162461bcd60e51b815260206004820152603d60248201527f4552433732313a20617070726f76652063616c6c6572206973206e6f7420746f60448201527f6b656e206f776e6572206f7220617070726f76656420666f7220616c6c0000006064820152608401610435565b6104d6838361093d565b505050565b600a54600854106105235760405162461bcd60e51b8152602060048201526012602482015271105b1b081d1bdad95b9cc818db185a5b595960721b6044820152606401610435565b600061052e60085490565b905061053a82826109ab565b61056e81600961054984610b44565b60405160200161055a929190611603565b604051602081830303815290604052610bd7565b61057c600880546001019055565b5050565b61058a3382610c6a565b6105a65760405162461bcd60e51b81526004016104359061168a565b6104d6838383610cc8565b6105b9610e39565b600961057c8282611725565b6104d6838383604051806020016040528060008152506106fc565b6000818152600260205260408120546001600160a01b0316806103025760405162461bcd60e51b8152602060048201526018602482015277115490cdcc8c4e881a5b9d985b1a59081d1bdad95b88125160421b6044820152606401610435565b610523610e39565b60006001600160a01b0382166106b25760405162461bcd60e51b815260206004820152602960248201527f4552433732313a2061646472657373207a65726f206973206e6f7420612076616044820152683634b21037bbb732b960b91b6064820152608401610435565b506001600160a01b031660009081526003602052604090205490565b6106d6610e39565b6106e06000610e93565b565b606060018054610317906115c9565b61057c338383610ee5565b6107063383610c6a565b6107225760405162461bcd60e51b81526004016104359061168a565b61072e84848484610fb3565b50505050565b606061073f826108de565b60008281526006602052604081208054610758906115c9565b80601f0160208091040260200160405190810160405280929190818152602001828054610784906115c9565b80156107d15780601f106107a6576101008083540402835291602001916107d1565b820191906000526020600020905b8154815290600101906020018083116107b457829003601f168201915b5050505050905060006107e2610fe6565b905080516000036107f4575092915050565b81511561082657808260405160200161080e9291906117e5565b60405160208183030381529060405292505050919050565b61082f84610ff5565b949350505050565b6001600160a01b03918216600090815260056020908152604080832093909416825291909152205460ff1690565b61086d610e39565b6001600160a01b0381166108d25760405162461bcd60e51b815260206004820152602660248201527f4f776e61626c653a206e6577206f776e657220697320746865207a65726f206160448201526564647265737360d01b6064820152608401610435565b6108db81610e93565b50565b6000818152600260205260409020546001600160a01b03166108db5760405162461bcd60e51b8152602060048201526018602482015277115490cdcc8c4e881a5b9d985b1a59081d1bdad95b88125160421b6044820152606401610435565b600081815260046020526040902080546001600160a01b0319166001600160a01b0384169081179091558190610972826105e0565b6001600160a01b03167f8c5be1e5ebec7d5bd14f71427d1e84f3dd0314c0f7b2291e5b200ac8c7c3b92560405160405180910390a45050565b6001600160a01b038216610a015760405162461bcd60e51b815260206004820181905260248201527f4552433732313a206d696e7420746f20746865207a65726f20616464726573736044820152606401610435565b6000818152600260205260409020546001600160a01b031615610a665760405162461bcd60e51b815260206004820152601c60248201527f4552433732313a20746f6b656e20616c7265616479206d696e746564000000006044820152606401610435565b610a7460008383600161105c565b6000818152600260205260409020546001600160a01b031615610ad95760405162461bcd60e51b815260206004820152601c60248201527f4552433732313a20746f6b656e20616c7265616479206d696e746564000000006044820152606401610435565b6001600160a01b038216600081815260036020908152604080832080546001019055848352600290915280822080546001600160a01b0319168417905551839291907fddf252ad1be2c89b69c2b068fc378daa952ba7f163c4a11628f55a4df523b3ef908290a45050565b60606000610b51836110e4565b600101905060008167ffffffffffffffff811115610b7157610b71611409565b6040519080825280601f01601f191660200182016040528015610b9b576020820181803683370190505b5090508181016020015b600019016f181899199a1a9b1b9c1cb0b131b232b360811b600a86061a8153600a8504945084610ba557509392505050565b6000828152600260205260409020546001600160a01b0316610c525760405162461bcd60e51b815260206004820152602e60248201527f45524337323155524953746f726167653a2055524920736574206f66206e6f6e60448201526d32bc34b9ba32b73a103a37b5b2b760911b6064820152608401610435565b60008281526006602052604090206104d68282611725565b600080610c76836105e0565b9050806001600160a01b0316846001600160a01b03161480610c9d5750610c9d8185610837565b8061082f5750836001600160a01b0316610cb68461039a565b6001600160a01b031614949350505050565b826001600160a01b0316610cdb826105e0565b6001600160a01b031614610d015760405162461bcd60e51b81526004016104359061180b565b6001600160a01b038216610d635760405162461bcd60e51b8152602060048201526024808201527f4552433732313a207472616e7366657220746f20746865207a65726f206164646044820152637265737360e01b6064820152608401610435565b610d70838383600161105c565b826001600160a01b0316610d83826105e0565b6001600160a01b031614610da95760405162461bcd60e51b81526004016104359061180b565b600081815260046020908152604080832080546001600160a01b03199081169091556001600160a01b0387811680865260038552838620805460001901905590871680865283862080546001019055868652600290945282852080549092168417909155905184937fddf252ad1be2c89b69c2b068fc378daa952ba7f163c4a11628f55a4df523b3ef91a4505050565b6007546001600160a01b031633146106e05760405162461bcd60e51b815260206004820181905260248201527f4f776e61626c653a2063616c6c6572206973206e6f7420746865206f776e65726044820152606401610435565b600780546001600160a01b038381166001600160a01b0319831681179093556040519116919082907f8be0079c531659141344cd1fd0a4f28419497f9722a3daafe3b4186f6b6457e090600090a35050565b816001600160a01b0316836001600160a01b031603610f465760405162461bcd60e51b815260206004820152601960248201527f4552433732313a20617070726f766520746f2063616c6c6572000000000000006044820152606401610435565b6001600160a01b03838116600081815260056020908152604080832094871680845294825291829020805460ff191686151590811790915591519182527f17307eab39ab6107e8899845ad3d59bd9653f200f220920489ca2b5937696c31910160405180910390a3505050565b610fbe848484610cc8565b610fca848484846111bc565b61072e5760405162461bcd60e51b815260040161043590611850565b606060098054610317906115c9565b6060611000826108de565b600061100a610fe6565b9050600081511161102a5760405180602001604052806000815250611055565b8061103484610b44565b6040516020016110459291906117e5565b6040516020818303038152906040525b9392505050565b600181111561072e576001600160a01b038416156110a2576001600160a01b0384166000908152600360205260408120805483929061109c9084906118b8565b90915550505b6001600160a01b0383161561072e576001600160a01b038316600090815260036020526040812080548392906110d99084906118cb565b909155505050505050565b60008072184f03e93ff9f4daa797ed6e38ed64bf6a1f0160401b83106111235772184f03e93ff9f4daa797ed6e38ed64bf6a1f0160401b830492506040015b6d04ee2d6d415b85acef8100000000831061114f576d04ee2d6d415b85acef8100000000830492506020015b662386f26fc10000831061116d57662386f26fc10000830492506010015b6305f5e1008310611185576305f5e100830492506008015b612710831061119957612710830492506004015b606483106111ab576064830492506002015b600a83106103025760010192915050565b60006001600160a01b0384163b156112b257604051630a85bd0160e11b81526001600160a01b0385169063150b7a02906112009033908990889088906004016118de565b6020604051808303816000875af192505050801561123b575060408051601f3d908101601f191682019092526112389181019061191b565b60015b611298573d808015611269576040519150601f19603f3d011682016040523d82523d6000602084013e61126e565b606091505b5080516000036112905760405162461bcd60e51b815260040161043590611850565b805181602001fd5b6001600160e01b031916630a85bd0160e11b14905061082f565b506001949350505050565b6001600160e01b0319811681146108db57600080fd5b6000602082840312156112e557600080fd5b8135611055816112bd565b60005b8381101561130b5781810151838201526020016112f3565b50506000910152565b6000815180845261132c8160208601602086016112f0565b601f01601f19169290920160200192915050565b6020815260006110556020830184611314565b60006020828403121561136557600080fd5b5035919050565b80356001600160a01b038116811461138357600080fd5b919050565b6000806040838503121561139b57600080fd5b6113a48361136c565b946020939093013593505050565b6000602082840312156113c457600080fd5b6110558261136c565b6000806000606084860312156113e257600080fd5b6113eb8461136c565b92506113f96020850161136c565b9150604084013590509250925092565b634e487b7160e01b600052604160045260246000fd5b600067ffffffffffffffff8084111561143a5761143a611409565b604051601f8501601f19908116603f0116810190828211818310171561146257611462611409565b8160405280935085815286868601111561147b57600080fd5b858560208301376000602087830101525050509392505050565b6000602082840312156114a757600080fd5b813567ffffffffffffffff8111156114be57600080fd5b8201601f810184136114cf57600080fd5b61082f8482356020840161141f565b600080604083850312156114f157600080fd5b6114fa8361136c565b91506020830135801515811461150f57600080fd5b809150509250929050565b6000806000806080858703121561153057600080fd5b6115398561136c565b93506115476020860161136c565b925060408501359150606085013567ffffffffffffffff81111561156a57600080fd5b8501601f8101871361157b57600080fd5b61158a8782356020840161141f565b91505092959194509250565b600080604083850312156115a957600080fd5b6115b28361136c565b91506115c06020840161136c565b90509250929050565b600181811c908216806115dd57607f821691505b6020821081036115fd57634e487b7160e01b600052602260045260246000fd5b50919050565b6000808454611611816115c9565b60018281168015611629576001811461163e5761166d565b60ff198416875282151583028701945061166d565b8860005260208060002060005b858110156116645781548a82015290840190820161164b565b50505082870194505b5050505083516116818183602088016112f0565b01949350505050565b6020808252602d908201527f4552433732313a2063616c6c6572206973206e6f7420746f6b656e206f776e6560408201526c1c881bdc88185c1c1c9bdd9959609a1b606082015260800190565b601f8211156104d657600081815260208120601f850160051c810160208610156116fe5750805b601f850160051c820191505b8181101561171d5782815560010161170a565b505050505050565b815167ffffffffffffffff81111561173f5761173f611409565b6117538161174d84546115c9565b846116d7565b602080601f83116001811461178857600084156117705750858301515b600019600386901b1c1916600185901b17855561171d565b600085815260208120601f198616915b828110156117b757888601518255948401946001909101908401611798565b50858210156117d55787850151600019600388901b60f8161c191681555b5050505050600190811b01905550565b600083516117f78184602088016112f0565b8351908301906116818183602088016112f0565b60208082526025908201527f4552433732313a207472616e736665722066726f6d20696e636f72726563742060408201526437bbb732b960d91b606082015260800190565b60208082526032908201527f4552433732313a207472616e7366657220746f206e6f6e20455243373231526560408201527131b2b4bb32b91034b6b83632b6b2b73a32b960711b606082015260800190565b634e487b7160e01b600052601160045260246000fd5b81810381811115610302576103026118a2565b80820180821115610302576103026118a2565b6001600160a01b038581168252841660208201526040810183905260806060820181905260009061191190830184611314565b9695505050505050565b60006020828403121561192d57600080fd5b8151611055816112bd56fea26469706673582212202193aa396cae942cc438864d4f26a2dd64faf3dd7741938353fc9c106adc64a864736f6c63430008120033",
  "linkReferences": {},
  "deployedLinkReferences": {}
}