{
  "_format": "hh-sol-artifact-1",
  "contractName": "Reward",
  "sourceName": "contracts/Reward.sol",
  "abi": [
    {
      "inputs": [
        {
          "internalType": "string",
          "name": "_baseTokenURI",
          "type": "string"
        },
        {
          "internalType": "uint256",
          "name": "_maxTokens",
          "type": "uint256"
        }
      ],
      "stateMutability": "nonpayable",
      "type": "constructor"
    },
    {
      "anonymous": false,
      "inputs": [
        {
          "indexed": true,
          "internalType": "address",
          "name": "owner",
          "type": "address"
        },
        {
          "indexed": true,
          "internalType": "address",
          "name": "approved",
          "type": "address"
        },
        {
          "indexed": true,
          "internalType": "uint256",
          "name": "tokenId",
          "type": "uint256"
        }
      ],
      "name": "Approval",
      "type": "event"
    },
    {
      "anonymous": false,
      "inputs": [
        {
          "indexed": true,
          "internalType": "address",
          "name": "owner",
          "type": "address"
        },
        {
          "indexed": true,
          "internalType": "address",
          "name": "operator",
          "type": "address"
        },
        {
          "indexed": false,
          "internalType": "bool",
          "name": "approved",
          "type": "bool"
        }
      ],
      "name": "ApprovalForAll",
      "type": "event"
    },
    {
      "anonymous": false,
      "inputs": [
        {
          "indexed": true,
          "internalType": "address",
          "name": "previousOwner",
          "type": "address"
        },
        {
          "indexed": true,
          "internalType": "address",
          "name": "newOwner",
          "type": "address"
        }
      ],
      "name": "OwnershipTransferred",
      "type": "event"
    },
    {
      "anonymous": false,
      "inputs": [
        {
          "indexed": true,
          "internalType": "address",
          "name": "from",
          "type": "address"
        },
        {
          "indexed": true,
          "internalType": "address",
          "name": "to",
          "type": "address"
        },
        {
          "indexed": true,
          "internalType": "uint256",
          "name": "tokenId",
          "type": "uint256"
        }
      ],
      "name": "Transfer",
      "type": "event"
    },
    {
      "inputs": [
        {
          "internalType": "address",
          "name": "to",
          "type": "address"
        },
        {
          "internalType": "uint256",
          "name": "tokenId",
          "type": "uint256"
        }
      ],
      "name": "approve",
      "outputs": [],
      "stateMutability": "nonpayable",
      "type": "function"
    },
    {
      "inputs": [
        {
          "internalType": "address",
          "name": "owner",
          "type": "address"
        }
      ],
      "name": "balanceOf",
      "outputs": [
        {
          "internalType": "uint256",
          "name": "",
          "type": "uint256"
        }
      ],
      "stateMutability": "view",
      "type": "function"
    },
    {
      "inputs": [],
      "name": "claim",
      "outputs": [],
      "stateMutability": "payable",
      "type": "function"
    },
    {
      "inputs": [
        {
          "internalType": "uint256",
          "name": "tokenId",
          "type": "uint256"
        }
      ],
      "name": "getApproved",
      "outputs": [
        {
          "internalType": "address",
          "name": "",
          "type": "address"
        }
      ],
      "stateMutability": "view",
      "type": "function"
    },
    {
      "inputs": [
        {
          "internalType": "address",
          "name": "owner",
          "type": "address"
        },
        {
          "internalType": "address",
          "name": "operator",
          "type": "address"
        }
      ],
      "name": "isApprovedForAll",
      "outputs": [
        {
          "internalType": "bool",
          "name": "",
          "type": "bool"
        }
      ],
      "stateMutability": "view",
      "type": "function"
    },
    {
      "inputs": [],
      "name": "name",
      "outputs": [
        {
          "internalType": "string",
          "name": "",
          "type": "string"
        }
      ],
      "stateMutability": "view",
      "type": "function"
    },
    {
      "inputs": [],
      "name": "owner",
      "outputs": [
        {
          "internalType": "address",
          "name": "",
          "type": "address"
        }
      ],
      "stateMutability": "view",
      "type": "function"
    },
    {
      "inputs": [
        {
          "internalType": "uint256",
          "name": "tokenId",
          "type": "uint256"
        }
      ],
      "name": "ownerOf",
      "outputs": [
        {
          "internalType": "address",
          "name": "",
          "type": "address"
        }
      ],
      "stateMutability": "view",
      "type": "function"
    },
    {
      "inputs": [],
      "name": "renounceOwnership",
      "outputs": [],
      "stateMutability": "nonpayable",
      "type": "function"
    },
    {
      "inputs": [
        {
          "internalType": "address",
          "name": "from",
          "type": "address"
        },
        {
          "internalType": "address",
          "name": "to",
          "type": "address"
        },
        {
          "internalType": "uint256",
          "name": "tokenId",
          "type": "uint256"
        }
      ],
      "name": "safeTransferFrom",
      "outputs": [],
      "stateMutability": "nonpayable",
      "type": "function"
    },
    {
      "inputs": [
        {
          "internalType": "address",
          "name": "from",
          "type": "address"
        },
        {
          "internalType": "address",
          "name": "to",
          "type": "address"
        },
        {
          "internalType": "uint256",
          "name": "tokenId",
          "type": "uint256"
        },
        {
          "internalType": "bytes",
          "name": "data",
          "type": "bytes"
        }
      ],
      "name": "safeTransferFrom",
      "outputs": [],
      "stateMutability": "nonpayable",
      "type": "function"
    },
    {
      "inputs": [
        {
          "internalType": "address",
          "name": "operator",
          "type": "address"
        },
        {
          "internalType": "bool",
          "name": "approved",
          "type": "bool"
        }
      ],
      "name": "setApprovalForAll",
      "outputs": [],
      "stateMutability": "nonpayable",
      "type": "function"
    },
    {
      "inputs": [
        {
          "internalType": "string",
          "name": "_newBaseTokenURI",
          "type": "string"
        }
      ],
      "name": "setBaseTokenURI",
      "outputs": [],
      "stateMutability": "nonpayable",
      "type": "function"
    },
    {
      "inputs": [
        {
          "internalType": "bytes4",
          "name": "interfaceId",
          "type": "bytes4"
        }
      ],
      "name": "supportsInterface",
      "outputs": [
        {
          "internalType": "bool",
          "name": "",
          "type": "bool"
        }
      ],
      "stateMutability": "view",
      "type": "function"
    },
    {
      "inputs": [],
      "name": "symbol",
      "outputs": [
        {
          "internalType": "string",
          "name": "",
          "type": "string"
        }
      ],
      "stateMutability": "view",
      "type": "function"
    },
    {
      "inputs": [
        {
          "internalType": "uint256",
          "name": "tokenId",
          "type": "uint256"
        }
      ],
      "name": "tokenURI",
      "outputs": [
        {
          "internalType": "string",
          "name": "",
          "type": "string"
        }
      ],
      "stateMutability": "view",
      "type": "function"
    },
    {
      "inputs": [
        {
          "internalType": "address",
          "name": "from",
          "type": "address"
        },
        {
          "internalType": "address",
          "name": "to",
          "type": "address"
        },
        {
          "internalType": "uint256",
          "name": "tokenId",
          "type": "uint256"
        }
      ],
      "name": "transferFrom",
      "outputs": [],
      "stateMutability": "nonpayable",
      "type": "function"
    },
    {
      "inputs": [
        {
          "internalType": "address",
          "name": "newOwner",
          "type": "address"
        }
      ],
      "name": "transferOwnership",
      "outputs": [],
      "stateMutability": "nonpayable",
      "type": "function"
    }
  ],
  "bytecode": "0x60806040523480156200001157600080fd5b5060405162001db338038062001db3833981016040819052620000349162000157565b6040518060400160405280600681526020016514995dd85c9960d21b815250604051806040016040528060048152602001631495d49160e21b8152508160009081620000819190620002c1565b506001620000908282620002c1565b505050620000ad620000a7620000e260201b60201c565b620000e6565b6009620000bb8382620002c1565b5080600a81905550620000da60086200013860201b6200097d1760201c565b50506200038d565b3390565b600780546001600160a01b038381166001600160a01b0319831681179093556040519116919082907f8be0079c531659141344cd1fd0a4f28419497f9722a3daafe3b4186f6b6457e090600090a35050565b80546001019055565b634e487b7160e01b600052604160045260246000fd5b600080604083850312156200016b57600080fd5b82516001600160401b03808211156200018357600080fd5b818501915085601f8301126200019857600080fd5b815181811115620001ad57620001ad62000141565b604051601f8201601f19908116603f01168101908382118183101715620001d857620001d862000141565b81604052828152602093508884848701011115620001f557600080fd5b600091505b82821015620002195784820184015181830185015290830190620001fa565b6000928101840192909252509401519395939450505050565b600181811c908216806200024757607f821691505b6020821081036200026857634e487b7160e01b600052602260045260246000fd5b50919050565b601f821115620002bc57600081815260208120601f850160051c81016020861015620002975750805b601f850160051c820191505b81811015620002b857828155600101620002a3565b5050505b505050565b81516001600160401b03811115620002dd57620002dd62000141565b620002f581620002ee845462000232565b846200026e565b602080601f8311600181146200032d5760008415620003145750858301515b600019600386901b1c1916600185901b178555620002b8565b600085815260208120601f198616915b828110156200035e578886015182559484019460019091019084016200033d565b50858210156200037d5787850151600019600388901b60f8161c191681555b5050505050600190811b01905550565b611a16806200039d6000396000f3fe6080604052600436106101095760003560e01c806370a0823111610095578063a22cb46511610064578063a22cb465146102bd578063b88d4fde146102dd578063c87b56dd146102fd578063e985e9c51461031d578063f2fde38b1461033d57600080fd5b806370a0823114610247578063715018a6146102755780638da5cb5b1461028a57806395d89b41146102a857600080fd5b806323b872dd116100dc57806323b872dd146101bf57806330176e13146101df57806342842e0e146101ff5780634e71d92d1461021f5780636352211e1461022757600080fd5b806301ffc9a71461010e57806306fdde0314610143578063081812fc14610165578063095ea7b31461019d575b600080fd5b34801561011a57600080fd5b5061012e61012936600461137b565b61035d565b60405190151581526020015b60405180910390f35b34801561014f57600080fd5b506101586103af565b60405161013a91906113e8565b34801561017157600080fd5b506101856101803660046113fb565b610441565b6040516001600160a01b03909116815260200161013a565b3480156101a957600080fd5b506101bd6101b8366004611430565b610468565b005b3480156101cb57600080fd5b506101bd6101da36600461145a565b610582565b3480156101eb57600080fd5b506101bd6101fa366004611522565b6105b3565b34801561020b57600080fd5b506101bd61021a36600461145a565b6105cb565b6101bd6105e6565b34801561023357600080fd5b506101856102423660046113fb565b61068a565b34801561025357600080fd5b5061026761026236600461156b565b6106ea565b60405190815260200161013a565b34801561028157600080fd5b506101bd610770565b34801561029657600080fd5b506007546001600160a01b0316610185565b3480156102b457600080fd5b50610158610784565b3480156102c957600080fd5b506101bd6102d8366004611586565b610793565b3480156102e957600080fd5b506101bd6102f83660046115c2565b61079e565b34801561030957600080fd5b506101586103183660046113fb565b6107d6565b34801561032957600080fd5b5061012e61033836600461163e565b6108d9565b34801561034957600080fd5b506101bd61035836600461156b565b610907565b60006001600160e01b031982166380ac58cd60e01b148061038e57506001600160e01b03198216635b5e139f60e01b145b806103a957506301ffc9a760e01b6001600160e01b03198316145b92915050565b6060600080546103be90611671565b80601f01602080910402602001604051908101604052809291908181526020018280546103ea90611671565b80156104375780601f1061040c57610100808354040283529160200191610437565b820191906000526020600020905b81548152906001019060200180831161041a57829003601f168201915b5050505050905090565b600061044c82610986565b506000908152600460205260409020546001600160a01b031690565b60006104738261068a565b9050806001600160a01b0316836001600160a01b0316036104e55760405162461bcd60e51b815260206004820152602160248201527f4552433732313a20617070726f76616c20746f2063757272656e74206f776e656044820152603960f91b60648201526084015b60405180910390fd5b336001600160a01b0382161480610501575061050181336108d9565b6105735760405162461bcd60e51b815260206004820152603d60248201527f4552433732313a20617070726f76652063616c6c6572206973206e6f7420746f60448201527f6b656e206f776e6572206f7220617070726f76656420666f7220616c6c00000060648201526084016104dc565b61057d83836109e5565b505050565b61058c3382610a53565b6105a85760405162461bcd60e51b81526004016104dc906116ab565b61057d838383610ab1565b6105bb610c22565b60096105c78282611746565b5050565b61057d8383836040518060200160405280600081525061079e565b600a546008541061062e5760405162461bcd60e51b8152602060048201526012602482015271105b1b081d1bdad95b9cc818db185a5b595960721b60448201526064016104dc565b600061063960085490565b90506106453382610c7c565b61067981600961065484610e15565b604051602001610665929190611806565b604051602081830303815290604052610ea8565b610687600880546001019055565b50565b6000818152600260205260408120546001600160a01b0316806103a95760405162461bcd60e51b8152602060048201526018602482015277115490cdcc8c4e881a5b9d985b1a59081d1bdad95b88125160421b60448201526064016104dc565b60006001600160a01b0382166107545760405162461bcd60e51b815260206004820152602960248201527f4552433732313a2061646472657373207a65726f206973206e6f7420612076616044820152683634b21037bbb732b960b91b60648201526084016104dc565b506001600160a01b031660009081526003602052604090205490565b610778610c22565b6107826000610f3b565b565b6060600180546103be90611671565b6105c7338383610f8d565b6107a83383610a53565b6107c45760405162461bcd60e51b81526004016104dc906116ab565b6107d08484848461105b565b50505050565b60606107e182610986565b600082815260066020526040812080546107fa90611671565b80601f016020809104026020016040519081016040528092919081815260200182805461082690611671565b80156108735780601f1061084857610100808354040283529160200191610873565b820191906000526020600020905b81548152906001019060200180831161085657829003601f168201915b50505050509050600061088461108e565b90508051600003610896575092915050565b8151156108c85780826040516020016108b092919061188d565b60405160208183030381529060405292505050919050565b6108d18461109d565b949350505050565b6001600160a01b03918216600090815260056020908152604080832093909416825291909152205460ff1690565b61090f610c22565b6001600160a01b0381166109745760405162461bcd60e51b815260206004820152602660248201527f4f776e61626c653a206e6577206f776e657220697320746865207a65726f206160448201526564647265737360d01b60648201526084016104dc565b61068781610f3b565b80546001019055565b6000818152600260205260409020546001600160a01b03166106875760405162461bcd60e51b8152602060048201526018602482015277115490cdcc8c4e881a5b9d985b1a59081d1bdad95b88125160421b60448201526064016104dc565b600081815260046020526040902080546001600160a01b0319166001600160a01b0384169081179091558190610a1a8261068a565b6001600160a01b03167f8c5be1e5ebec7d5bd14f71427d1e84f3dd0314c0f7b2291e5b200ac8c7c3b92560405160405180910390a45050565b600080610a5f8361068a565b9050806001600160a01b0316846001600160a01b03161480610a865750610a8681856108d9565b806108d15750836001600160a01b0316610a9f84610441565b6001600160a01b031614949350505050565b826001600160a01b0316610ac48261068a565b6001600160a01b031614610aea5760405162461bcd60e51b81526004016104dc906118b3565b6001600160a01b038216610b4c5760405162461bcd60e51b8152602060048201526024808201527f4552433732313a207472616e7366657220746f20746865207a65726f206164646044820152637265737360e01b60648201526084016104dc565b610b598383836001611104565b826001600160a01b0316610b6c8261068a565b6001600160a01b031614610b925760405162461bcd60e51b81526004016104dc906118b3565b600081815260046020908152604080832080546001600160a01b03199081169091556001600160a01b0387811680865260038552838620805460001901905590871680865283862080546001019055868652600290945282852080549092168417909155905184937fddf252ad1be2c89b69c2b068fc378daa952ba7f163c4a11628f55a4df523b3ef91a4505050565b6007546001600160a01b031633146107825760405162461bcd60e51b815260206004820181905260248201527f4f776e61626c653a2063616c6c6572206973206e6f7420746865206f776e657260448201526064016104dc565b6001600160a01b038216610cd25760405162461bcd60e51b815260206004820181905260248201527f4552433732313a206d696e7420746f20746865207a65726f206164647265737360448201526064016104dc565b6000818152600260205260409020546001600160a01b031615610d375760405162461bcd60e51b815260206004820152601c60248201527f4552433732313a20746f6b656e20616c7265616479206d696e7465640000000060448201526064016104dc565b610d45600083836001611104565b6000818152600260205260409020546001600160a01b031615610daa5760405162461bcd60e51b815260206004820152601c60248201527f4552433732313a20746f6b656e20616c7265616479206d696e7465640000000060448201526064016104dc565b6001600160a01b038216600081815260036020908152604080832080546001019055848352600290915280822080546001600160a01b0319168417905551839291907fddf252ad1be2c89b69c2b068fc378daa952ba7f163c4a11628f55a4df523b3ef908290a45050565b60606000610e228361118c565b600101905060008167ffffffffffffffff811115610e4257610e42611496565b6040519080825280601f01601f191660200182016040528015610e6c576020820181803683370190505b5090508181016020015b600019016f181899199a1a9b1b9c1cb0b131b232b360811b600a86061a8153600a8504945084610e7657509392505050565b6000828152600260205260409020546001600160a01b0316610f235760405162461bcd60e51b815260206004820152602e60248201527f45524337323155524953746f726167653a2055524920736574206f66206e6f6e60448201526d32bc34b9ba32b73a103a37b5b2b760911b60648201526084016104dc565b600082815260066020526040902061057d8282611746565b600780546001600160a01b038381166001600160a01b0319831681179093556040519116919082907f8be0079c531659141344cd1fd0a4f28419497f9722a3daafe3b4186f6b6457e090600090a35050565b816001600160a01b0316836001600160a01b031603610fee5760405162461bcd60e51b815260206004820152601960248201527f4552433732313a20617070726f766520746f2063616c6c65720000000000000060448201526064016104dc565b6001600160a01b03838116600081815260056020908152604080832094871680845294825291829020805460ff191686151590811790915591519182527f17307eab39ab6107e8899845ad3d59bd9653f200f220920489ca2b5937696c31910160405180910390a3505050565b611066848484610ab1565b61107284848484611264565b6107d05760405162461bcd60e51b81526004016104dc906118f8565b6060600980546103be90611671565b60606110a882610986565b60006110b261108e565b905060008151116110d257604051806020016040528060008152506110fd565b806110dc84610e15565b6040516020016110ed92919061188d565b6040516020818303038152906040525b9392505050565b60018111156107d0576001600160a01b0384161561114a576001600160a01b03841660009081526003602052604081208054839290611144908490611960565b90915550505b6001600160a01b038316156107d0576001600160a01b03831660009081526003602052604081208054839290611181908490611973565b909155505050505050565b60008072184f03e93ff9f4daa797ed6e38ed64bf6a1f0160401b83106111cb5772184f03e93ff9f4daa797ed6e38ed64bf6a1f0160401b830492506040015b6d04ee2d6d415b85acef810000000083106111f7576d04ee2d6d415b85acef8100000000830492506020015b662386f26fc10000831061121557662386f26fc10000830492506010015b6305f5e100831061122d576305f5e100830492506008015b612710831061124157612710830492506004015b60648310611253576064830492506002015b600a83106103a95760010192915050565b60006001600160a01b0384163b1561135a57604051630a85bd0160e11b81526001600160a01b0385169063150b7a02906112a8903390899088908890600401611986565b6020604051808303816000875af19250505080156112e3575060408051601f3d908101601f191682019092526112e0918101906119c3565b60015b611340573d808015611311576040519150601f19603f3d011682016040523d82523d6000602084013e611316565b606091505b5080516000036113385760405162461bcd60e51b81526004016104dc906118f8565b805181602001fd5b6001600160e01b031916630a85bd0160e11b1490506108d1565b506001949350505050565b6001600160e01b03198116811461068757600080fd5b60006020828403121561138d57600080fd5b81356110fd81611365565b60005b838110156113b357818101518382015260200161139b565b50506000910152565b600081518084526113d4816020860160208601611398565b601f01601f19169290920160200192915050565b6020815260006110fd60208301846113bc565b60006020828403121561140d57600080fd5b5035919050565b80356001600160a01b038116811461142b57600080fd5b919050565b6000806040838503121561144357600080fd5b61144c83611414565b946020939093013593505050565b60008060006060848603121561146f57600080fd5b61147884611414565b925061148660208501611414565b9150604084013590509250925092565b634e487b7160e01b600052604160045260246000fd5b600067ffffffffffffffff808411156114c7576114c7611496565b604051601f8501601f19908116603f011681019082821181831017156114ef576114ef611496565b8160405280935085815286868601111561150857600080fd5b858560208301376000602087830101525050509392505050565b60006020828403121561153457600080fd5b813567ffffffffffffffff81111561154b57600080fd5b8201601f8101841361155c57600080fd5b6108d1848235602084016114ac565b60006020828403121561157d57600080fd5b6110fd82611414565b6000806040838503121561159957600080fd5b6115a283611414565b9150602083013580151581146115b757600080fd5b809150509250929050565b600080600080608085870312156115d857600080fd5b6115e185611414565b93506115ef60208601611414565b925060408501359150606085013567ffffffffffffffff81111561161257600080fd5b8501601f8101871361162357600080fd5b611632878235602084016114ac565b91505092959194509250565b6000806040838503121561165157600080fd5b61165a83611414565b915061166860208401611414565b90509250929050565b600181811c9082168061168557607f821691505b6020821081036116a557634e487b7160e01b600052602260045260246000fd5b50919050565b6020808252602d908201527f4552433732313a2063616c6c6572206973206e6f7420746f6b656e206f776e6560408201526c1c881bdc88185c1c1c9bdd9959609a1b606082015260800190565b601f82111561057d57600081815260208120601f850160051c8101602086101561171f5750805b601f850160051c820191505b8181101561173e5782815560010161172b565b505050505050565b815167ffffffffffffffff81111561176057611760611496565b6117748161176e8454611671565b846116f8565b602080601f8311600181146117a957600084156117915750858301515b600019600386901b1c1916600185901b17855561173e565b600085815260208120601f198616915b828110156117d8578886015182559484019460019091019084016117b9565b50858210156117f65787850151600019600388901b60f8161c191681555b5050505050600190811b01905550565b600080845461181481611671565b6001828116801561182c576001811461184157611870565b60ff1984168752821515830287019450611870565b8860005260208060002060005b858110156118675781548a82015290840190820161184e565b50505082870194505b505050508351611884818360208801611398565b01949350505050565b6000835161189f818460208801611398565b835190830190611884818360208801611398565b60208082526025908201527f4552433732313a207472616e736665722066726f6d20696e636f72726563742060408201526437bbb732b960d91b606082015260800190565b60208082526032908201527f4552433732313a207472616e7366657220746f206e6f6e20455243373231526560408201527131b2b4bb32b91034b6b83632b6b2b73a32b960711b606082015260800190565b634e487b7160e01b600052601160045260246000fd5b818103818111156103a9576103a961194a565b808201808211156103a9576103a961194a565b6001600160a01b03858116825284166020820152604081018390526080606082018190526000906119b9908301846113bc565b9695505050505050565b6000602082840312156119d557600080fd5b81516110fd8161136556fea2646970667358221220b9459caa815c8691a7351ec0df430523121d985b09295a823ea2293cd00d840264736f6c63430008120033",
  "linkReferences": {},
  "deployedLinkReferences": {}
}